{
  "_format": "hh-sol-artifact-1",
  "contractName": "Exchange",
  "sourceName": "contracts/Exchange.sol",
  "abi": [
    {
      "anonymous": false,
      "inputs": [
        {
          "indexed": false,
          "internalType": "uint8",
          "name": "version",
          "type": "uint8"
        }
      ],
      "name": "Initialized",
      "type": "event"
    },
    {
      "anonymous": false,
      "inputs": [
        {
          "indexed": false,
          "internalType": "uint256",
          "name": "tokenId",
          "type": "uint256"
        }
      ],
      "name": "ListingsForTokenCanceled",
      "type": "event"
    },
    {
      "anonymous": false,
      "inputs": [
        {
          "indexed": false,
          "internalType": "uint256",
          "name": "tokenId",
          "type": "uint256"
        },
        {
          "indexed": false,
          "internalType": "address",
          "name": "offerMaker",
          "type": "address"
        }
      ],
      "name": "OffersForTokenByUserCanceled",
      "type": "event"
    },
    {
      "anonymous": false,
      "inputs": [
        {
          "indexed": false,
          "internalType": "bytes32",
          "name": "orderHash",
          "type": "bytes32"
        },
        {
          "indexed": false,
          "internalType": "address",
          "name": "orderMaker",
          "type": "address"
        }
      ],
      "name": "OrderCanceled",
      "type": "event"
    },
    {
      "anonymous": false,
      "inputs": [
        {
          "indexed": false,
          "internalType": "bytes32",
          "name": "firstHash",
          "type": "bytes32"
        },
        {
          "indexed": false,
          "internalType": "bytes32",
          "name": "secondHash",
          "type": "bytes32"
        },
        {
          "indexed": true,
          "internalType": "address",
          "name": "firstMaker",
          "type": "address"
        },
        {
          "indexed": true,
          "internalType": "address",
          "name": "secondMaker",
          "type": "address"
        }
      ],
      "name": "OrdersMatched",
      "type": "event"
    },
    {
      "anonymous": false,
      "inputs": [
        {
          "indexed": true,
          "internalType": "address",
          "name": "previousOwner",
          "type": "address"
        },
        {
          "indexed": true,
          "internalType": "address",
          "name": "newOwner",
          "type": "address"
        }
      ],
      "name": "OwnershipTransferred",
      "type": "event"
    },
    {
      "inputs": [],
      "name": "ORDER_TYPEHASH",
      "outputs": [
        {
          "internalType": "bytes32",
          "name": "",
          "type": "bytes32"
        }
      ],
      "stateMutability": "view",
      "type": "function"
    },
    {
      "inputs": [
        {
          "internalType": "address",
          "name": "",
          "type": "address"
        }
      ],
      "name": "allowedCurrencies",
      "outputs": [
        {
          "internalType": "bool",
          "name": "",
          "type": "bool"
        }
      ],
      "stateMutability": "view",
      "type": "function"
    },
    {
      "inputs": [
        {
          "components": [
            {
              "internalType": "address",
              "name": "maker",
              "type": "address"
            },
            {
              "internalType": "bool",
              "name": "isErc20Offer",
              "type": "bool"
            },
            {
              "internalType": "uint256",
              "name": "tokenId",
              "type": "uint256"
            },
            {
              "internalType": "address",
              "name": "currencyContract",
              "type": "address"
            },
            {
              "internalType": "uint256",
              "name": "amount",
              "type": "uint256"
            },
            {
              "internalType": "uint256",
              "name": "nonce",
              "type": "uint256"
            },
            {
              "internalType": "uint256",
              "name": "listingNonce",
              "type": "uint256"
            },
            {
              "internalType": "uint256",
              "name": "offerNonce",
              "type": "uint256"
            },
            {
              "internalType": "uint256",
              "name": "listingTime",
              "type": "uint256"
            },
            {
              "internalType": "uint256",
              "name": "expirationTime",
              "type": "uint256"
            },
            {
              "internalType": "uint256",
              "name": "salt",
              "type": "uint256"
            }
          ],
          "internalType": "struct Exchange.Order",
          "name": "firstOrder",
          "type": "tuple"
        },
        {
          "components": [
            {
              "internalType": "address",
              "name": "maker",
              "type": "address"
            },
            {
              "internalType": "bool",
              "name": "isErc20Offer",
              "type": "bool"
            },
            {
              "internalType": "uint256",
              "name": "tokenId",
              "type": "uint256"
            },
            {
              "internalType": "address",
              "name": "currencyContract",
              "type": "address"
            },
            {
              "internalType": "uint256",
              "name": "amount",
              "type": "uint256"
            },
            {
              "internalType": "uint256",
              "name": "nonce",
              "type": "uint256"
            },
            {
              "internalType": "uint256",
              "name": "listingNonce",
              "type": "uint256"
            },
            {
              "internalType": "uint256",
              "name": "offerNonce",
              "type": "uint256"
            },
            {
              "internalType": "uint256",
              "name": "listingTime",
              "type": "uint256"
            },
            {
              "internalType": "uint256",
              "name": "expirationTime",
              "type": "uint256"
            },
            {
              "internalType": "uint256",
              "name": "salt",
              "type": "uint256"
            }
          ],
          "internalType": "struct Exchange.Order",
          "name": "secondOrder",
          "type": "tuple"
        },
        {
          "internalType": "bytes",
          "name": "firstSignature",
          "type": "bytes"
        },
        {
          "internalType": "bytes",
          "name": "secondSignature",
          "type": "bytes"
        }
      ],
      "name": "atomicMatch",
      "outputs": [],
      "stateMutability": "payable",
      "type": "function"
    },
    {
      "inputs": [
        {
          "internalType": "uint256",
          "name": "tokenId",
          "type": "uint256"
        }
      ],
      "name": "cancelAllListings",
      "outputs": [],
      "stateMutability": "nonpayable",
      "type": "function"
    },
    {
      "inputs": [
        {
          "internalType": "uint256",
          "name": "tokenId",
          "type": "uint256"
        }
      ],
      "name": "cancelAllOffersForTokenId",
      "outputs": [],
      "stateMutability": "nonpayable",
      "type": "function"
    },
    {
      "inputs": [],
      "name": "cancelAllOrders",
      "outputs": [],
      "stateMutability": "nonpayable",
      "type": "function"
    },
    {
      "inputs": [
        {
          "components": [
            {
              "internalType": "address",
              "name": "maker",
              "type": "address"
            },
            {
              "internalType": "bool",
              "name": "isErc20Offer",
              "type": "bool"
            },
            {
              "internalType": "uint256",
              "name": "tokenId",
              "type": "uint256"
            },
            {
              "internalType": "address",
              "name": "currencyContract",
              "type": "address"
            },
            {
              "internalType": "uint256",
              "name": "amount",
              "type": "uint256"
            },
            {
              "internalType": "uint256",
              "name": "nonce",
              "type": "uint256"
            },
            {
              "internalType": "uint256",
              "name": "listingNonce",
              "type": "uint256"
            },
            {
              "internalType": "uint256",
              "name": "offerNonce",
              "type": "uint256"
            },
            {
              "internalType": "uint256",
              "name": "listingTime",
              "type": "uint256"
            },
            {
              "internalType": "uint256",
              "name": "expirationTime",
              "type": "uint256"
            },
            {
              "internalType": "uint256",
              "name": "salt",
              "type": "uint256"
            }
          ],
          "internalType": "struct Exchange.Order",
          "name": "order",
          "type": "tuple"
        }
      ],
      "name": "cancelOrder",
      "outputs": [],
      "stateMutability": "nonpayable",
      "type": "function"
    },
    {
      "inputs": [],
      "name": "codename",
      "outputs": [
        {
          "internalType": "string",
          "name": "",
          "type": "string"
        }
      ],
      "stateMutability": "view",
      "type": "function"
    },
    {
      "inputs": [
        {
          "internalType": "bytes32",
          "name": "",
          "type": "bytes32"
        }
      ],
      "name": "doneOrders",
      "outputs": [
        {
          "internalType": "bool",
          "name": "",
          "type": "bool"
        }
      ],
      "stateMutability": "view",
      "type": "function"
    },
    {
      "inputs": [
        {
          "internalType": "address",
          "name": "what",
          "type": "address"
        }
      ],
      "name": "exists",
      "outputs": [
        {
          "internalType": "bool",
          "name": "",
          "type": "bool"
        }
      ],
      "stateMutability": "view",
      "type": "function"
    },
    {
      "inputs": [
        {
          "components": [
            {
              "internalType": "address",
              "name": "maker",
              "type": "address"
            },
            {
              "internalType": "bool",
              "name": "isErc20Offer",
              "type": "bool"
            },
            {
              "internalType": "uint256",
              "name": "tokenId",
              "type": "uint256"
            },
            {
              "internalType": "address",
              "name": "currencyContract",
              "type": "address"
            },
            {
              "internalType": "uint256",
              "name": "amount",
              "type": "uint256"
            },
            {
              "internalType": "uint256",
              "name": "nonce",
              "type": "uint256"
            },
            {
              "internalType": "uint256",
              "name": "listingNonce",
              "type": "uint256"
            },
            {
              "internalType": "uint256",
              "name": "offerNonce",
              "type": "uint256"
            },
            {
              "internalType": "uint256",
              "name": "listingTime",
              "type": "uint256"
            },
            {
              "internalType": "uint256",
              "name": "expirationTime",
              "type": "uint256"
            },
            {
              "internalType": "uint256",
              "name": "salt",
              "type": "uint256"
            }
          ],
          "internalType": "struct Exchange.Order",
          "name": "order",
          "type": "tuple"
        }
      ],
      "name": "hashOrder",
      "outputs": [
        {
          "internalType": "bytes32",
          "name": "hash",
          "type": "bytes32"
        }
      ],
      "stateMutability": "pure",
      "type": "function"
    },
    {
      "inputs": [
        {
          "internalType": "bytes32",
          "name": "orderHash",
          "type": "bytes32"
        }
      ],
      "name": "hashToSign",
      "outputs": [
        {
          "internalType": "bytes32",
          "name": "hash",
          "type": "bytes32"
        }
      ],
      "stateMutability": "view",
      "type": "function"
    },
    {
      "inputs": [
        {
          "internalType": "address",
          "name": "_tokenAddress",
          "type": "address"
        },
        {
          "internalType": "uint256",
          "name": "_chainId",
          "type": "uint256"
        },
        {
          "internalType": "address",
          "name": "_royaltyAddress",
          "type": "address"
        },
        {
          "internalType": "uint256",
          "name": "_royaltyBasisPoints",
          "type": "uint256"
        }
      ],
      "name": "initialize",
      "outputs": [],
      "stateMutability": "nonpayable",
      "type": "function"
    },
    {
      "inputs": [
        {
          "internalType": "uint256",
          "name": "",
          "type": "uint256"
        }
      ],
      "name": "listingNonce",
      "outputs": [
        {
          "internalType": "uint256",
          "name": "",
          "type": "uint256"
        }
      ],
      "stateMutability": "view",
      "type": "function"
    },
    {
      "inputs": [],
      "name": "name",
      "outputs": [
        {
          "internalType": "string",
          "name": "",
          "type": "string"
        }
      ],
      "stateMutability": "view",
      "type": "function"
    },
    {
      "inputs": [
        {
          "internalType": "address",
          "name": "",
          "type": "address"
        }
      ],
      "name": "nonce",
      "outputs": [
        {
          "internalType": "uint256",
          "name": "",
          "type": "uint256"
        }
      ],
      "stateMutability": "view",
      "type": "function"
    },
    {
      "inputs": [
        {
          "internalType": "uint256",
          "name": "",
          "type": "uint256"
        },
        {
          "internalType": "address",
          "name": "",
          "type": "address"
        }
      ],
      "name": "offerNonce",
      "outputs": [
        {
          "internalType": "uint256",
          "name": "",
          "type": "uint256"
        }
      ],
      "stateMutability": "view",
      "type": "function"
    },
    {
      "inputs": [],
      "name": "owner",
      "outputs": [
        {
          "internalType": "address",
          "name": "",
          "type": "address"
        }
      ],
      "stateMutability": "view",
      "type": "function"
    },
    {
      "inputs": [],
      "name": "renounceOwnership",
      "outputs": [],
      "stateMutability": "nonpayable",
      "type": "function"
    },
    {
      "inputs": [],
      "name": "royaltyAddress",
      "outputs": [
        {
          "internalType": "address",
          "name": "",
          "type": "address"
        }
      ],
      "stateMutability": "view",
      "type": "function"
    },
    {
      "inputs": [],
      "name": "royaltyBasisPoints",
      "outputs": [
        {
          "internalType": "uint256",
          "name": "",
          "type": "uint256"
        }
      ],
      "stateMutability": "view",
      "type": "function"
    },
    {
      "inputs": [],
      "name": "royaltyPercentageDenominator",
      "outputs": [
        {
          "internalType": "uint256",
          "name": "",
          "type": "uint256"
        }
      ],
      "stateMutability": "view",
      "type": "function"
    },
    {
      "inputs": [
        {
          "internalType": "address",
          "name": "_currencyAddress",
          "type": "address"
        },
        {
          "internalType": "bool",
          "name": "_allowed",
          "type": "bool"
        }
      ],
      "name": "setAllowedCurrency",
      "outputs": [],
      "stateMutability": "nonpayable",
      "type": "function"
    },
    {
      "inputs": [
        {
          "internalType": "address",
          "name": "_royaltyAddress",
          "type": "address"
        }
      ],
      "name": "setRoyaltyAddress",
      "outputs": [],
      "stateMutability": "nonpayable",
      "type": "function"
    },
    {
      "inputs": [
        {
          "internalType": "uint256",
          "name": "_royaltyBasisPoints",
          "type": "uint256"
        }
      ],
      "name": "setRoyaltyBasisPoints",
      "outputs": [],
      "stateMutability": "nonpayable",
      "type": "function"
    },
    {
      "inputs": [],
      "name": "tokenAddress",
      "outputs": [
        {
          "internalType": "contract IUNSRegistry",
          "name": "",
          "type": "address"
        }
      ],
      "stateMutability": "view",
      "type": "function"
    },
    {
      "inputs": [
        {
          "internalType": "address",
          "name": "newOwner",
          "type": "address"
        }
      ],
      "name": "transferOwnership",
      "outputs": [],
      "stateMutability": "nonpayable",
      "type": "function"
    },
    {
      "inputs": [
        {
          "internalType": "bytes32",
          "name": "hash",
          "type": "bytes32"
        },
        {
          "internalType": "address",
          "name": "maker",
          "type": "address"
        },
        {
          "internalType": "bytes",
          "name": "signature",
          "type": "bytes"
        }
      ],
      "name": "validateOrderAuthorization",
      "outputs": [
        {
          "internalType": "bool",
          "name": "",
          "type": "bool"
        }
      ],
      "stateMutability": "view",
      "type": "function"
    },
    {
      "inputs": [
        {
          "components": [
            {
              "internalType": "address",
              "name": "maker",
              "type": "address"
            },
            {
              "internalType": "bool",
              "name": "isErc20Offer",
              "type": "bool"
            },
            {
              "internalType": "uint256",
              "name": "tokenId",
              "type": "uint256"
            },
            {
              "internalType": "address",
              "name": "currencyContract",
              "type": "address"
            },
            {
              "internalType": "uint256",
              "name": "amount",
              "type": "uint256"
            },
            {
              "internalType": "uint256",
              "name": "nonce",
              "type": "uint256"
            },
            {
              "internalType": "uint256",
              "name": "listingNonce",
              "type": "uint256"
            },
            {
              "internalType": "uint256",
              "name": "offerNonce",
              "type": "uint256"
            },
            {
              "internalType": "uint256",
              "name": "listingTime",
              "type": "uint256"
            },
            {
              "internalType": "uint256",
              "name": "expirationTime",
              "type": "uint256"
            },
            {
              "internalType": "uint256",
              "name": "salt",
              "type": "uint256"
            }
          ],
          "internalType": "struct Exchange.Order",
          "name": "order",
          "type": "tuple"
        },
        {
          "internalType": "bytes32",
          "name": "hash",
          "type": "bytes32"
        }
      ],
      "name": "validateOrderParameters",
      "outputs": [
        {
          "internalType": "bool",
          "name": "",
          "type": "bool"
        }
      ],
      "stateMutability": "view",
      "type": "function"
    },
    {
      "inputs": [],
      "name": "version",
      "outputs": [
        {
          "internalType": "string",
          "name": "",
          "type": "string"
        }
      ],
      "stateMutability": "view",
      "type": "function"
    }
  ],
  "bytecode": "0x608060405234801561001057600080fd5b50613ea8806100206000396000f3fe6080604052600436106101cd5760003560e01c80638da5cb5b116100f7578063ecdd54bc11610095578063f6b542e911610064578063f6b542e91461067b578063f973a209146106a4578063fc623ef8146106cf578063fe42d46b1461070c576101cd565b8063ecdd54bc146105af578063eebdb789146105ec578063f2fde38b14610615578063f6a3d24e1461063e576101cd565b8063ad2f852a116100d1578063ad2f852a14610507578063b6b8194014610532578063bd3e65a21461055b578063e24df75414610586576101cd565b80638da5cb5b146104745780639d76ea581461049f578063a862ebbd146104ca576101cd565b806342260b5d1161016f578063715018a61161013e578063715018a6146103ba57806386e306b5146103d157806387d35b3e1461040e578063886ca0b21461044b576101cd565b806342260b5d1461030b57806354fd4d501461033657806370ae92d21461036157806371173ea31461039e576101cd565b80630c5a855e116101ab5780630c5a855e1461023d57806331e631991461027a57806336e07ea7146102a55780633a4a8969146102ce576101cd565b8063028afabf146101d257806306d254da146101e957806306fdde0314610212575b600080fd5b3480156101de57600080fd5b506101e7610749565b005b3480156101f557600080fd5b50610210600480360381019061020b919061240e565b6107a0565b005b34801561021e57600080fd5b506102276107ec565b60405161023491906124cb565b60405180910390f35b34801561024957600080fd5b50610264600480360381019061025f9190612523565b610825565b6040516102719190612572565b60405180910390f35b34801561028657600080fd5b5061028f61084a565b60405161029c91906124cb565b60405180910390f35b3480156102b157600080fd5b506102cc60048036038101906102c7919061258d565b610883565b005b3480156102da57600080fd5b506102f560048036038101906102f0919061258d565b610890565b6040516103029190612572565b60405180910390f35b34801561031757600080fd5b506103206108a8565b60405161032d9190612572565b60405180910390f35b34801561034257600080fd5b5061034b6108ae565b60405161035891906124cb565b60405180910390f35b34801561036d57600080fd5b506103886004803603810190610383919061240e565b6108e7565b6040516103959190612572565b60405180910390f35b6103b860048036038101906103b39190612838565b6108ff565b005b3480156103c657600080fd5b506103cf611610565b005b3480156103dd57600080fd5b506103f860048036038101906103f3919061240e565b611624565b60405161040591906128ea565b60405180910390f35b34801561041a57600080fd5b506104356004803603810190610430919061293b565b611644565b60405161044291906128ea565b60405180910390f35b34801561045757600080fd5b50610472600480360381019061046d9190612968565b611664565b005b34801561048057600080fd5b506104896116c7565b60405161049691906129b7565b60405180910390f35b3480156104ab57600080fd5b506104b46116f1565b6040516104c19190612a31565b60405180910390f35b3480156104d657600080fd5b506104f160048036038101906104ec9190612a4c565b611717565b6040516104fe91906128ea565b60405180910390f35b34801561051357600080fd5b5061051c611890565b60405161052991906129b7565b60405180910390f35b34801561053e57600080fd5b506105596004803603810190610554919061258d565b6118b6565b005b34801561056757600080fd5b5061057061190d565b60405161057d9190612572565b60405180910390f35b34801561059257600080fd5b506105ad60048036038101906105a89190612a8e565b611913565b005b3480156105bb57600080fd5b506105d660048036038101906105d19190612af5565b611ba8565b6040516105e39190612b32565b60405180910390f35b3480156105f857600080fd5b50610613600480360381019061060e919061258d565b611c3d565b005b34801561062157600080fd5b5061063c6004803603810190610637919061240e565b611d52565b005b34801561064a57600080fd5b506106656004803603810190610660919061240e565b611dd5565b60405161067291906128ea565b60405180910390f35b34801561068757600080fd5b506106a2600480360381019061069d9190612af5565b611de8565b005b3480156106b057600080fd5b506106b9611ed4565b6040516106c69190612b32565b60405180910390f35b3480156106db57600080fd5b506106f660048036038101906106f1919061293b565b611ef8565b6040516107039190612b32565b60405180910390f35b34801561071857600080fd5b50610733600480360381019061072e9190612b4d565b611f2c565b60405161074091906128ea565b60405180910390f35b606860003373ffffffffffffffffffffffffffffffffffffffff1673ffffffffffffffffffffffffffffffffffffffff168152602001908152602001600020600081548092919061079990612beb565b9190505550565b6107a8611ff7565b80606e60006101000a81548173ffffffffffffffffffffffffffffffffffffffff021916908373ffffffffffffffffffffffffffffffffffffffff16021790555050565b6040518060400160405280601881526020017f457465726e616c204469676974616c2045786368616e6765000000000000000081525081565b606a602052816000526040600020602052806000526040600020600091509150505481565b6040518060400160405280600981526020017f416d616c67616d6f6e000000000000000000000000000000000000000000000081525081565b61088d8133612075565b50565b60696020528060005260406000206000915090505481565b606d5481565b6040518060400160405280600381526020017f312e30000000000000000000000000000000000000000000000000000000000081525081565b60686020528060005260406000206000915090505481565b606660009054906101000a900460ff161561094f576040517f08c379a000000000000000000000000000000000000000000000000000000000815260040161094690612c7f565b60405180910390fd5b6001606660006101000a81548160ff021916908315150217905550826000015173ffffffffffffffffffffffffffffffffffffffff16846000015173ffffffffffffffffffffffffffffffffffffffff16036109e0576040517f08c379a00000000000000000000000000000000000000000000000000000000081526004016109d790612ceb565b60405180910390fd5b60006109eb85611ba8565b90506109f78582611717565b610a36576040517f08c379a0000000000000000000000000000000000000000000000000000000008152600401610a2d90612d7d565b60405180910390fd5b846020015115610a7b576040517f08c379a0000000000000000000000000000000000000000000000000000000008152600401610a7290612de9565b60405180910390fd5b6069600086604001518152602001908152602001600020548560c0015114610ad8576040517f08c379a0000000000000000000000000000000000000000000000000000000008152600401610acf90612e55565b60405180910390fd5b6000610ae385611ba8565b9050610aef8582611717565b610b2e576040517f08c379a0000000000000000000000000000000000000000000000000000000008152600401610b2590612ee7565b60405180910390fd5b8460200151610b72576040517f08c379a0000000000000000000000000000000000000000000000000000000008152600401610b6990612f79565b60405180910390fd5b606a6000866040015181526020019081526020016000206000866000015173ffffffffffffffffffffffffffffffffffffffff1673ffffffffffffffffffffffffffffffffffffffff168152602001908152602001600020548560e0015114610c10576040517f08c379a0000000000000000000000000000000000000000000000000000000008152600401610c0790612fe5565b60405180910390fd5b808203610c52576040517f08c379a0000000000000000000000000000000000000000000000000000000008152600401610c4990613077565b60405180910390fd5b610c6182876000015186611f2c565b610ca0576040517f08c379a0000000000000000000000000000000000000000000000000000000008152600401610c97906130e3565b60405180910390fd5b610caf81866000015185611f2c565b610cee576040517f08c379a0000000000000000000000000000000000000000000000000000000008152600401610ce590613175565b60405180910390fd5b606b6000876060015173ffffffffffffffffffffffffffffffffffffffff1673ffffffffffffffffffffffffffffffffffffffff16815260200190815260200160002060009054906101000a900460ff16610d7e576040517f08c379a0000000000000000000000000000000000000000000000000000000008152600401610d75906131e1565b60405180910390fd5b8460400151866040015114610dc8576040517f08c379a0000000000000000000000000000000000000000000000000000000008152600401610dbf9061324d565b60405180910390fd5b846060015173ffffffffffffffffffffffffffffffffffffffff16866060015173ffffffffffffffffffffffffffffffffffffffff1614610e3e576040517f08c379a0000000000000000000000000000000000000000000000000000000008152600401610e35906132df565b60405180910390fd5b8460800151866080015114610e88576040517f08c379a0000000000000000000000000000000000000000000000000000000008152600401610e7f9061334b565b60405180910390fd5b6000612710606d548860800151610e9f919061336b565b610ea991906133dc565b90506000818860800151610ebd919061340d565b9050600073ffffffffffffffffffffffffffffffffffffffff16886060015173ffffffffffffffffffffffffffffffffffffffff16036111315734886080015114610f3d576040517f08c379a0000000000000000000000000000000000000000000000000000000008152600401610f349061334b565b60405180910390fd5b600082111561107157600073ffffffffffffffffffffffffffffffffffffffff16606e60009054906101000a900473ffffffffffffffffffffffffffffffffffffffff1673ffffffffffffffffffffffffffffffffffffffff1603610fa157600080fd5b6000606e60009054906101000a900473ffffffffffffffffffffffffffffffffffffffff1673ffffffffffffffffffffffffffffffffffffffff1683604051610fe990613472565b60006040518083038185875af1925050503d8060008114611026576040519150601f19603f3d011682016040523d82523d6000602084013e61102b565b606091505b505090508061106f576040517f08c379a0000000000000000000000000000000000000000000000000000000008152600401611066906134d3565b60405180910390fd5b505b600081111561112c576000886000015173ffffffffffffffffffffffffffffffffffffffff16826040516110a490613472565b60006040518083038185875af1925050503d80600081146110e1576040519150601f19603f3d011682016040523d82523d6000602084013e6110e6565b606091505b505090508061112a576040517f08c379a0000000000000000000000000000000000000000000000000000000008152600401611121906134d3565b60405180910390fd5b505b611357565b600087606001519050600083111561128457600073ffffffffffffffffffffffffffffffffffffffff16606e60009054906101000a900473ffffffffffffffffffffffffffffffffffffffff1673ffffffffffffffffffffffffffffffffffffffff160361119e57600080fd5b8073ffffffffffffffffffffffffffffffffffffffff166323b872dd8960000151606e60009054906101000a900473ffffffffffffffffffffffffffffffffffffffff16866040518463ffffffff1660e01b8152600401611201939291906134f3565b6020604051808303816000875af1158015611220573d6000803e3d6000fd5b505050506040513d601f19601f82011682018060405250810190611244919061353f565b611283576040517f08c379a000000000000000000000000000000000000000000000000000000000815260040161127a906135de565b60405180910390fd5b5b6000821115611355578073ffffffffffffffffffffffffffffffffffffffff166323b872dd89600001518b60000151856040518463ffffffff1660e01b81526004016112d2939291906134f3565b6020604051808303816000875af11580156112f1573d6000803e3d6000fd5b505050506040513d601f19601f82011682018060405250810190611315919061353f565b611354576040517f08c379a000000000000000000000000000000000000000000000000000000000815260040161134b9061364a565b60405180910390fd5b5b505b876000015173ffffffffffffffffffffffffffffffffffffffff16606c60009054906101000a900473ffffffffffffffffffffffffffffffffffffffff1673ffffffffffffffffffffffffffffffffffffffff16636352211e8a604001516040518263ffffffff1660e01b81526004016113d19190612572565b602060405180830381865afa1580156113ee573d6000803e3d6000fd5b505050506040513d601f19601f82011682018060405250810190611412919061367f565b73ffffffffffffffffffffffffffffffffffffffff1614611468576040517f08c379a000000000000000000000000000000000000000000000000000000000815260040161145f9061371e565b60405180910390fd5b606c60009054906101000a900473ffffffffffffffffffffffffffffffffffffffff1673ffffffffffffffffffffffffffffffffffffffff166323b872dd896000015189600001518b604001516040518463ffffffff1660e01b81526004016114d3939291906134f3565b600060405180830381600087803b1580156114ed57600080fd5b505af1158015611501573d6000803e3d6000fd5b5050505060016067600086815260200190815260200160002060006101000a81548160ff02191690831515021790555060016067600085815260200190815260200160002060006101000a81548160ff02191690831515021790555061156a8860400151612118565b61157c87604001518860000151612075565b866000015173ffffffffffffffffffffffffffffffffffffffff16886000015173ffffffffffffffffffffffffffffffffffffffff167ffb46980828ec0667bce2314afd8a2a139e6cda12272dc566d4e4c056eec24a9b86866040516115e392919061373e565b60405180910390a3505050506000606660006101000a81548160ff02191690831515021790555050505050565b611618611ff7565b611622600061217b565b565b606b6020528060005260406000206000915054906101000a900460ff1681565b60676020528060005260406000206000915054906101000a900460ff1681565b61166c611ff7565b80606b60008473ffffffffffffffffffffffffffffffffffffffff1673ffffffffffffffffffffffffffffffffffffffff16815260200190815260200160002060006101000a81548160ff0219169083151502179055505050565b6000603360009054906101000a900473ffffffffffffffffffffffffffffffffffffffff16905090565b606c60009054906101000a900473ffffffffffffffffffffffffffffffffffffffff1681565b6000428361010001511180611743575060008361012001511415801561174257504283610120015111155b5b15611751576000905061188a565b60686000846000015173ffffffffffffffffffffffffffffffffffffffff1673ffffffffffffffffffffffffffffffffffffffff168152602001908152602001600020548360a0015110156117a9576000905061188a565b606c60009054906101000a900473ffffffffffffffffffffffffffffffffffffffff1673ffffffffffffffffffffffffffffffffffffffff16634f558e7984604001516040518263ffffffff1660e01b81526004016118089190612572565b602060405180830381865afa158015611825573d6000803e3d6000fd5b505050506040513d601f19601f82011682018060405250810190611849919061353f565b611856576000905061188a565b6067600083815260200190815260200160002060009054906101000a900460ff1615611885576000905061188a565b600190505b92915050565b606e60009054906101000a900473ffffffffffffffffffffffffffffffffffffffff1681565b6118be611ff7565b612710811115611903576040517f08c379a00000000000000000000000000000000000000000000000000000000081526004016118fa906137d9565b60405180910390fd5b80606d8190555050565b61271081565b60008060019054906101000a900460ff161590508080156119445750600160008054906101000a900460ff1660ff16105b80611971575061195330612241565b1580156119705750600160008054906101000a900460ff1660ff16145b5b6119b0576040517f08c379a00000000000000000000000000000000000000000000000000000000081526004016119a79061386b565b60405180910390fd5b60016000806101000a81548160ff021916908360ff16021790555080156119ed576001600060016101000a81548160ff0219169083151502179055505b84606c60006101000a81548173ffffffffffffffffffffffffffffffffffffffff021916908373ffffffffffffffffffffffffffffffffffffffff16021790555082606e60006101000a81548173ffffffffffffffffffffffffffffffffffffffff021916908373ffffffffffffffffffffffffffffffffffffffff16021790555081606d819055506000606660006101000a81548160ff021916908315150217905550611b3a60405180608001604052806040518060400160405280601881526020017f457465726e616c204469676974616c2045786368616e6765000000000000000081525081526020016040518060400160405280600381526020017f312e30000000000000000000000000000000000000000000000000000000000081525081526020018681526020013073ffffffffffffffffffffffffffffffffffffffff16815250612264565b606581905550611b486122da565b8015611ba15760008060016101000a81548160ff0219169083151502179055507f7f26b83ff96e1f2b6a682f133852f6798a09c465da95921460cefb38474024986001604051611b9891906138d3565b60405180910390a15b5050505050565b60007f6ab8351c597e2ee0974e20fdada19bdf5d19159a6f8f6befd58e975702708d7e826000015183602001518460400151856060015186608001518760a001518860c001518960e001518a61010001518b61012001518c6101400151604051602001611c209c9b9a999897969594939291906138ee565b604051602081830303815290604052805190602001209050919050565b3373ffffffffffffffffffffffffffffffffffffffff16606c60009054906101000a900473ffffffffffffffffffffffffffffffffffffffff1673ffffffffffffffffffffffffffffffffffffffff16636352211e836040518263ffffffff1660e01b8152600401611caf9190612572565b602060405180830381865afa158015611ccc573d6000803e3d6000fd5b505050506040513d601f19601f82011682018060405250810190611cf0919061367f565b73ffffffffffffffffffffffffffffffffffffffff1614611d46576040517f08c379a0000000000000000000000000000000000000000000000000000000008152600401611d3d906139f4565b60405180910390fd5b611d4f81612118565b50565b611d5a611ff7565b600073ffffffffffffffffffffffffffffffffffffffff168173ffffffffffffffffffffffffffffffffffffffff1603611dc9576040517f08c379a0000000000000000000000000000000000000000000000000000000008152600401611dc090613a86565b60405180910390fd5b611dd28161217b565b50565b600080823b905060008111915050919050565b3373ffffffffffffffffffffffffffffffffffffffff16816000015173ffffffffffffffffffffffffffffffffffffffff1614611e5a576040517f08c379a0000000000000000000000000000000000000000000000000000000008152600401611e5190613b18565b60405180910390fd5b6000611e6582611ba8565b905060016067600083815260200190815260200160002060006101000a81548160ff0219169083151502179055507fae41337bd1e05e429fc52474ce72902a09610e71a4c57c5f18741b69b4f60f09818360000151604051611ec8929190613b38565b60405180910390a15050565b7f6ab8351c597e2ee0974e20fdada19bdf5d19159a6f8f6befd58e975702708d7e81565b600060655482604051602001611f0f929190613bd9565b604051602081830303815290604052805190602001209050919050565b600080611f3885611ef8565b9050600080600085806020019051810190611f539190613c51565b9250925092508673ffffffffffffffffffffffffffffffffffffffff1660018585858560405160008152602001604052604051611f939493929190613cb3565b6020604051602081039080840390855afa158015611fb5573d6000803e3d6000fd5b5050506020604051035173ffffffffffffffffffffffffffffffffffffffff1603611fe7576001945050505050611ff0565b60009450505050505b9392505050565b611fff612333565b73ffffffffffffffffffffffffffffffffffffffff1661201d6116c7565b73ffffffffffffffffffffffffffffffffffffffff1614612073576040517f08c379a000000000000000000000000000000000000000000000000000000000815260040161206a90613d44565b60405180910390fd5b565b606a600083815260200190815260200160002060008273ffffffffffffffffffffffffffffffffffffffff1673ffffffffffffffffffffffffffffffffffffffff16815260200190815260200160002060008154809291906120d690612beb565b91905055507f842f768b61ecbef3b2652d5fbc8519a65ed1ec0e683da14f66c26c970086598e828260405161210c929190613d64565b60405180910390a15050565b60696000828152602001908152602001600020600081548092919061213c90612beb565b91905055507f9ed5f76e2c16209f847abae4e8a04c2fc93a2c6ffa8b88b753a913aadb1e93a7816040516121709190612572565b60405180910390a150565b6000603360009054906101000a900473ffffffffffffffffffffffffffffffffffffffff16905081603360006101000a81548173ffffffffffffffffffffffffffffffffffffffff021916908373ffffffffffffffffffffffffffffffffffffffff1602179055508173ffffffffffffffffffffffffffffffffffffffff168173ffffffffffffffffffffffffffffffffffffffff167f8be0079c531659141344cd1fd0a4f28419497f9722a3daafe3b4186f6b6457e060405160405180910390a35050565b6000808273ffffffffffffffffffffffffffffffffffffffff163b119050919050565b60007f8b73c3c69bb8fe3d512ecc4cf759cc79239f7b179b0ffacaa9a75d522b39400f826000015180519060200120836020015180519060200120846040015185606001516040516020016122bd959493929190613d8d565b604051602081830303815290604052805190602001209050919050565b600060019054906101000a900460ff16612329576040517f08c379a000000000000000000000000000000000000000000000000000000000815260040161232090613e52565b60405180910390fd5b61233161233b565b565b600033905090565b600060019054906101000a900460ff1661238a576040517f08c379a000000000000000000000000000000000000000000000000000000000815260040161238190613e52565b60405180910390fd5b61239a612395612333565b61217b565b565b6000604051905090565b600080fd5b600080fd5b600073ffffffffffffffffffffffffffffffffffffffff82169050919050565b60006123db826123b0565b9050919050565b6123eb816123d0565b81146123f657600080fd5b50565b600081359050612408816123e2565b92915050565b600060208284031215612424576124236123a6565b5b6000612432848285016123f9565b91505092915050565b600081519050919050565b600082825260208201905092915050565b60005b8381101561247557808201518184015260208101905061245a565b60008484015250505050565b6000601f19601f8301169050919050565b600061249d8261243b565b6124a78185612446565b93506124b7818560208601612457565b6124c081612481565b840191505092915050565b600060208201905081810360008301526124e58184612492565b905092915050565b6000819050919050565b612500816124ed565b811461250b57600080fd5b50565b60008135905061251d816124f7565b92915050565b6000806040838503121561253a576125396123a6565b5b60006125488582860161250e565b9250506020612559858286016123f9565b9150509250929050565b61256c816124ed565b82525050565b60006020820190506125876000830184612563565b92915050565b6000602082840312156125a3576125a26123a6565b5b60006125b18482850161250e565b91505092915050565b600080fd5b7f4e487b7100000000000000000000000000000000000000000000000000000000600052604160045260246000fd5b6125f782612481565b810181811067ffffffffffffffff82111715612616576126156125bf565b5b80604052505050565b600061262961239c565b905061263582826125ee565b919050565b60008115159050919050565b61264f8161263a565b811461265a57600080fd5b50565b60008135905061266c81612646565b92915050565b60006101608284031215612689576126886125ba565b5b61269461016061261f565b905060006126a4848285016123f9565b60008301525060206126b88482850161265d565b60208301525060406126cc8482850161250e565b60408301525060606126e0848285016123f9565b60608301525060806126f48482850161250e565b60808301525060a06127088482850161250e565b60a08301525060c061271c8482850161250e565b60c08301525060e06127308482850161250e565b60e0830152506101006127458482850161250e565b6101008301525061012061275b8482850161250e565b610120830152506101406127718482850161250e565b6101408301525092915050565b600080fd5b600080fd5b600067ffffffffffffffff8211156127a3576127a26125bf565b5b6127ac82612481565b9050602081019050919050565b82818337600083830152505050565b60006127db6127d684612788565b61261f565b9050828152602081018484840111156127f7576127f6612783565b5b6128028482856127b9565b509392505050565b600082601f83011261281f5761281e61277e565b5b813561282f8482602086016127c8565b91505092915050565b6000806000806103008587031215612853576128526123a6565b5b600061286187828801612672565b94505061016061287387828801612672565b9350506102c085013567ffffffffffffffff811115612895576128946123ab565b5b6128a18782880161280a565b9250506102e085013567ffffffffffffffff8111156128c3576128c26123ab565b5b6128cf8782880161280a565b91505092959194509250565b6128e48161263a565b82525050565b60006020820190506128ff60008301846128db565b92915050565b6000819050919050565b61291881612905565b811461292357600080fd5b50565b6000813590506129358161290f565b92915050565b600060208284031215612951576129506123a6565b5b600061295f84828501612926565b91505092915050565b6000806040838503121561297f5761297e6123a6565b5b600061298d858286016123f9565b925050602061299e8582860161265d565b9150509250929050565b6129b1816123d0565b82525050565b60006020820190506129cc60008301846129a8565b92915050565b6000819050919050565b60006129f76129f26129ed846123b0565b6129d2565b6123b0565b9050919050565b6000612a09826129dc565b9050919050565b6000612a1b826129fe565b9050919050565b612a2b81612a10565b82525050565b6000602082019050612a466000830184612a22565b92915050565b6000806101808385031215612a6457612a636123a6565b5b6000612a7285828601612672565b925050610160612a8485828601612926565b9150509250929050565b60008060008060808587031215612aa857612aa76123a6565b5b6000612ab6878288016123f9565b9450506020612ac78782880161250e565b9350506040612ad8878288016123f9565b9250506060612ae98782880161250e565b91505092959194509250565b60006101608284031215612b0c57612b0b6123a6565b5b6000612b1a84828501612672565b91505092915050565b612b2c81612905565b82525050565b6000602082019050612b476000830184612b23565b92915050565b600080600060608486031215612b6657612b656123a6565b5b6000612b7486828701612926565b9350506020612b85868287016123f9565b925050604084013567ffffffffffffffff811115612ba657612ba56123ab565b5b612bb28682870161280a565b9150509250925092565b7f4e487b7100000000000000000000000000000000000000000000000000000000600052601160045260246000fd5b6000612bf6826124ed565b91507fffffffffffffffffffffffffffffffffffffffffffffffffffffffffffffffff8203612c2857612c27612bbc565b5b600182019050919050565b7f5265656e7472616e637920646574656374656400000000000000000000000000600082015250565b6000612c69601383612446565b9150612c7482612c33565b602082019050919050565b60006020820190508181036000830152612c9881612c5c565b9050919050565b7f43616e2774206f726465722066726f6d20796f757273656c6600000000000000600082015250565b6000612cd5601983612446565b9150612ce082612c9f565b602082019050919050565b60006020820190508181036000830152612d0481612cc8565b9050919050565b7f4669727374206f726465722068617320696e76616c696420706172616d65746560008201527f7273000000000000000000000000000000000000000000000000000000000000602082015250565b6000612d67602283612446565b9150612d7282612d0b565b604082019050919050565b60006020820190508181036000830152612d9681612d5a565b9050919050565b7f4669727374206f72646572206973206e6f7420646f6d61696e206f7264657200600082015250565b6000612dd3601f83612446565b9150612dde82612d9d565b602082019050919050565b60006020820190508181036000830152612e0281612dc6565b9050919050565b7f4c697374696e6720686173206265656e2063616e63656c6c6564000000000000600082015250565b6000612e3f601a83612446565b9150612e4a82612e09565b602082019050919050565b60006020820190508181036000830152612e6e81612e32565b9050919050565b7f5365636f6e64206f726465722068617320696e76616c696420706172616d657460008201527f6572730000000000000000000000000000000000000000000000000000000000602082015250565b6000612ed1602383612446565b9150612edc82612e75565b604082019050919050565b60006020820190508181036000830152612f0081612ec4565b9050919050565b7f5365636f6e64206f72646572206973206e6f74207061796d656e74206f72646560008201527f7200000000000000000000000000000000000000000000000000000000000000602082015250565b6000612f63602183612446565b9150612f6e82612f07565b604082019050919050565b60006020820190508181036000830152612f9281612f56565b9050919050565b7f4f66666572732068617665206265656e2063616e63656c6c6564000000000000600082015250565b6000612fcf601a83612446565b9150612fda82612f99565b602082019050919050565b60006020820190508181036000830152612ffe81612fc2565b9050919050565b7f53656c662d6d61746368696e67206f72646572732069732070726f686962697460008201527f6564000000000000000000000000000000000000000000000000000000000000602082015250565b6000613061602283612446565b915061306c82613005565b604082019050919050565b6000602082019050818103600083015261309081613054565b9050919050565b7f4669727374206f72646572206661696c656420617574686f72697a6174696f6e600082015250565b60006130cd602083612446565b91506130d882613097565b602082019050919050565b600060208201905081810360008301526130fc816130c0565b9050919050565b7f5365636f6e64206f72646572206661696c656420617574686f72697a6174696f60008201527f6e00000000000000000000000000000000000000000000000000000000000000602082015250565b600061315f602183612446565b915061316a82613103565b604082019050919050565b6000602082019050818103600083015261318e81613152565b9050919050565b7f43757272656e6379206e6f7420616c6c6f776564000000000000000000000000600082015250565b60006131cb601483612446565b91506131d682613195565b602082019050919050565b600060208201905081810360008301526131fa816131be565b9050919050565b7f4f726465727320746f6b656e206964206d6973736d6174636800000000000000600082015250565b6000613237601983612446565b915061324282613201565b602082019050919050565b600060208201905081810360008301526132668161322a565b9050919050565b7f4f72646572732063757272656e637920636f6e7472616374206d6973736d617460008201527f6368000000000000000000000000000000000000000000000000000000000000602082015250565b60006132c9602283612446565b91506132d48261326d565b604082019050919050565b600060208201905081810360008301526132f8816132bc565b9050919050565b7f537570706c696564206c657373207468616e2072657175697265640000000000600082015250565b6000613335601b83612446565b9150613340826132ff565b602082019050919050565b6000602082019050818103600083015261336481613328565b9050919050565b6000613376826124ed565b9150613381836124ed565b925082820261338f816124ed565b915082820484148315176133a6576133a5612bbc565b5b5092915050565b7f4e487b7100000000000000000000000000000000000000000000000000000000600052601260045260246000fd5b60006133e7826124ed565b91506133f2836124ed565b925082613402576134016133ad565b5b828204905092915050565b6000613418826124ed565b9150613423836124ed565b925082820390508181111561343b5761343a612bbc565b5b92915050565b600081905092915050565b50565b600061345c600083613441565b91506134678261344c565b600082019050919050565b600061347d8261344f565b9150819050919050565b7f6e617469766520746f6b656e207472616e73666572206661696c65642e000000600082015250565b60006134bd601d83612446565b91506134c882613487565b602082019050919050565b600060208201905081810360008301526134ec816134b0565b9050919050565b600060608201905061350860008301866129a8565b61351560208301856129a8565b6135226040830184612563565b949350505050565b60008151905061353981612646565b92915050565b600060208284031215613555576135546123a6565b5b60006135638482850161352a565b91505092915050565b7f5061796d656e7420666f72206173736574206661696c65642e20726f79616c7460008201527f6965730000000000000000000000000000000000000000000000000000000000602082015250565b60006135c8602383612446565b91506135d38261356c565b604082019050919050565b600060208201905081810360008301526135f7816135bb565b9050919050565b7f5061796d656e7420666f72206173736574206661696c65640000000000000000600082015250565b6000613634601883612446565b915061363f826135fe565b602082019050919050565b6000602082019050818103600083015261366381613627565b9050919050565b600081519050613679816123e2565b92915050565b600060208284031215613695576136946123a6565b5b60006136a38482850161366a565b91505092915050565b7f46697273744f72646572206d616b6572206973206e6f7420746865206f776e6560008201527f72206f6620646f6d61696e000000000000000000000000000000000000000000602082015250565b6000613708602b83612446565b9150613713826136ac565b604082019050919050565b60006020820190508181036000830152613737816136fb565b9050919050565b60006040820190506137536000830185612b23565b6137606020830184612b23565b9392505050565b7f526f79616c747920626173697320706f696e747320617265206772656174657260008201527f207468616e20726f79616c74792064656e6f6d696e61746f7200000000000000602082015250565b60006137c3603983612446565b91506137ce82613767565b604082019050919050565b600060208201905081810360008301526137f2816137b6565b9050919050565b7f496e697469616c697a61626c653a20636f6e747261637420697320616c72656160008201527f647920696e697469616c697a6564000000000000000000000000000000000000602082015250565b6000613855602e83612446565b9150613860826137f9565b604082019050919050565b6000602082019050818103600083015261388481613848565b9050919050565b6000819050919050565b600060ff82169050919050565b60006138bd6138b86138b38461388b565b6129d2565b613895565b9050919050565b6138cd816138a2565b82525050565b60006020820190506138e860008301846138c4565b92915050565b600061018082019050613904600083018f612b23565b613911602083018e6129a8565b61391e604083018d6128db565b61392b606083018c612563565b613938608083018b6129a8565b61394560a083018a612563565b61395260c0830189612563565b61395f60e0830188612563565b61396d610100830187612563565b61397b610120830186612563565b613989610140830185612563565b613997610160830184612563565b9d9c50505050505050505050505050565b7f596f7520646f6e2774206f776e2074686520746f6b656e000000000000000000600082015250565b60006139de601783612446565b91506139e9826139a8565b602082019050919050565b60006020820190508181036000830152613a0d816139d1565b9050919050565b7f4f776e61626c653a206e6577206f776e657220697320746865207a65726f206160008201527f6464726573730000000000000000000000000000000000000000000000000000602082015250565b6000613a70602683612446565b9150613a7b82613a14565b604082019050919050565b60006020820190508181036000830152613a9f81613a63565b9050919050565b7f43616e63656c696e6720616e6f746865722075736572206f726465722070726f60008201527f6869626974656400000000000000000000000000000000000000000000000000602082015250565b6000613b02602783612446565b9150613b0d82613aa6565b604082019050919050565b60006020820190508181036000830152613b3181613af5565b9050919050565b6000604082019050613b4d6000830185612b23565b613b5a60208301846129a8565b9392505050565b600081905092915050565b7f1901000000000000000000000000000000000000000000000000000000000000600082015250565b6000613ba2600283613b61565b9150613bad82613b6c565b600282019050919050565b6000819050919050565b613bd3613bce82612905565b613bb8565b82525050565b6000613be482613b95565b9150613bf08285613bc2565b602082019150613c008284613bc2565b6020820191508190509392505050565b613c1981613895565b8114613c2457600080fd5b50565b600081519050613c3681613c10565b92915050565b600081519050613c4b8161290f565b92915050565b600080600060608486031215613c6a57613c696123a6565b5b6000613c7886828701613c27565b9350506020613c8986828701613c3c565b9250506040613c9a86828701613c3c565b9150509250925092565b613cad81613895565b82525050565b6000608082019050613cc86000830187612b23565b613cd56020830186613ca4565b613ce26040830185612b23565b613cef6060830184612b23565b95945050505050565b7f4f776e61626c653a2063616c6c6572206973206e6f7420746865206f776e6572600082015250565b6000613d2e602083612446565b9150613d3982613cf8565b602082019050919050565b60006020820190508181036000830152613d5d81613d21565b9050919050565b6000604082019050613d796000830185612563565b613d8660208301846129a8565b9392505050565b600060a082019050613da26000830188612b23565b613daf6020830187612b23565b613dbc6040830186612b23565b613dc96060830185612563565b613dd660808301846129a8565b9695505050505050565b7f496e697469616c697a61626c653a20636f6e7472616374206973206e6f74206960008201527f6e697469616c697a696e67000000000000000000000000000000000000000000602082015250565b6000613e3c602b83612446565b9150613e4782613de0565b604082019050919050565b60006020820190508181036000830152613e6b81613e2f565b905091905056fea2646970667358221220d32bf9175df7672bebe8936e447694a4cec026040dd5d7283b423e04584d5d6764736f6c63430008110033",
  "linkReferences": {},
  "deployedLinkReferences": {}
}