{
  "_format": "hh-sol-artifact-1",
  "contractName": "RoyaltySplitter",
  "sourceName": "contracts/RoyaltySplitter.sol",
  "abi": [
    {
      "inputs": [],
      "stateMutability": "payable",
      "type": "constructor"
    },
    {
      "anonymous": false,
      "inputs": [
        {
          "indexed": true,
          "internalType": "contract IERC20",
          "name": "token",
          "type": "address"
        },
        {
          "indexed": false,
          "internalType": "address",
          "name": "to",
          "type": "address"
        },
        {
          "indexed": false,
          "internalType": "uint256",
          "name": "amount",
          "type": "uint256"
        }
      ],
      "name": "ERC20PaymentReleased",
      "type": "event"
    },
    {
      "anonymous": false,
      "inputs": [
        {
          "indexed": false,
          "internalType": "address",
          "name": "account",
          "type": "address"
        },
        {
          "indexed": false,
          "internalType": "uint256",
          "name": "shares",
          "type": "uint256"
        }
      ],
      "name": "PayeeAdded",
      "type": "event"
    },
    {
      "anonymous": false,
      "inputs": [
        {
          "indexed": false,
          "internalType": "address",
          "name": "from",
          "type": "address"
        },
        {
          "indexed": false,
          "internalType": "uint256",
          "name": "amount",
          "type": "uint256"
        }
      ],
      "name": "PaymentReceived",
      "type": "event"
    },
    {
      "anonymous": false,
      "inputs": [
        {
          "indexed": false,
          "internalType": "address",
          "name": "to",
          "type": "address"
        },
        {
          "indexed": false,
          "internalType": "uint256",
          "name": "amount",
          "type": "uint256"
        }
      ],
      "name": "PaymentReleased",
      "type": "event"
    },
    {
      "inputs": [
        {
          "internalType": "uint256",
          "name": "index",
          "type": "uint256"
        }
      ],
      "name": "payee",
      "outputs": [
        {
          "internalType": "address",
          "name": "",
          "type": "address"
        }
      ],
      "stateMutability": "view",
      "type": "function"
    },
    {
      "inputs": [
        {
          "internalType": "address",
          "name": "account",
          "type": "address"
        }
      ],
      "name": "releasable",
      "outputs": [
        {
          "internalType": "uint256",
          "name": "",
          "type": "uint256"
        }
      ],
      "stateMutability": "view",
      "type": "function"
    },
    {
      "inputs": [
        {
          "internalType": "contract IERC20",
          "name": "token",
          "type": "address"
        },
        {
          "internalType": "address",
          "name": "account",
          "type": "address"
        }
      ],
      "name": "releasable",
      "outputs": [
        {
          "internalType": "uint256",
          "name": "",
          "type": "uint256"
        }
      ],
      "stateMutability": "view",
      "type": "function"
    },
    {
      "inputs": [
        {
          "internalType": "address payable",
          "name": "account",
          "type": "address"
        }
      ],
      "name": "release",
      "outputs": [],
      "stateMutability": "nonpayable",
      "type": "function"
    },
    {
      "inputs": [
        {
          "internalType": "contract IERC20",
          "name": "token",
          "type": "address"
        },
        {
          "internalType": "address",
          "name": "account",
          "type": "address"
        }
      ],
      "name": "release",
      "outputs": [],
      "stateMutability": "nonpayable",
      "type": "function"
    },
    {
      "inputs": [
        {
          "internalType": "contract IERC20",
          "name": "token",
          "type": "address"
        },
        {
          "internalType": "address",
          "name": "account",
          "type": "address"
        }
      ],
      "name": "released",
      "outputs": [
        {
          "internalType": "uint256",
          "name": "",
          "type": "uint256"
        }
      ],
      "stateMutability": "view",
      "type": "function"
    },
    {
      "inputs": [
        {
          "internalType": "address",
          "name": "account",
          "type": "address"
        }
      ],
      "name": "released",
      "outputs": [
        {
          "internalType": "uint256",
          "name": "",
          "type": "uint256"
        }
      ],
      "stateMutability": "view",
      "type": "function"
    },
    {
      "inputs": [
        {
          "internalType": "address",
          "name": "account",
          "type": "address"
        }
      ],
      "name": "shares",
      "outputs": [
        {
          "internalType": "uint256",
          "name": "",
          "type": "uint256"
        }
      ],
      "stateMutability": "view",
      "type": "function"
    },
    {
      "inputs": [
        {
          "internalType": "contract IERC20",
          "name": "token",
          "type": "address"
        }
      ],
      "name": "totalReleased",
      "outputs": [
        {
          "internalType": "uint256",
          "name": "",
          "type": "uint256"
        }
      ],
      "stateMutability": "view",
      "type": "function"
    },
    {
      "inputs": [],
      "name": "totalReleased",
      "outputs": [
        {
          "internalType": "uint256",
          "name": "",
          "type": "uint256"
        }
      ],
      "stateMutability": "view",
      "type": "function"
    },
    {
      "inputs": [],
      "name": "totalShares",
      "outputs": [
        {
          "internalType": "uint256",
          "name": "",
          "type": "uint256"
        }
      ],
      "stateMutability": "view",
      "type": "function"
    },
    {
      "stateMutability": "payable",
      "type": "receive"
    }
  ],
  "bytecode": "0x60806040526200002b73bec155ad45b1ba9f0cca374e56681a414320b32260056200011b60201b60201c565b6200005273261c60a2c0aaf92403a7457f112654f1db95dd9860056200011b60201b60201c565b6200007973eebe3e885097e70e123eac7296aedff8824aa99960056200011b60201b60201c565b620000a073e0949a5aa405229a8f3ed8c950721f97e85526fb60056200011b60201b60201c565b620000c7731d266890d5dabd4b5fe61f9a45e3ae3d5529fd8c60146200011b60201b60201c565b620000ee73c13f74c0ee0e75716aa4a59914e32b9bf3f304a860346200011b60201b60201c565b620001157315f3a86938d8a5207605b205cc1a801f5bab8f0c60086200011b60201b60201c565b620005fe565b600073ffffffffffffffffffffffffffffffffffffffff168273ffffffffffffffffffffffffffffffffffffffff16036200018d576040517f08c379a00000000000000000000000000000000000000000000000000000000081526004016200018490620003db565b60405180910390fd5b60008111620001d3576040517f08c379a0000000000000000000000000000000000000000000000000000000008152600401620001ca906200044d565b60405180910390fd5b6000600260008473ffffffffffffffffffffffffffffffffffffffff1673ffffffffffffffffffffffffffffffffffffffff168152602001908152602001600020541462000258576040517f08c379a00000000000000000000000000000000000000000000000000000000081526004016200024f90620004e5565b60405180910390fd5b6004829080600181540180825580915050600190039060005260206000200160009091909190916101000a81548173ffffffffffffffffffffffffffffffffffffffff021916908373ffffffffffffffffffffffffffffffffffffffff16021790555080600260008473ffffffffffffffffffffffffffffffffffffffff1673ffffffffffffffffffffffffffffffffffffffff16815260200190815260200160002081905550806000546200030f919062000540565b6000819055507f40c340f65e17194d14ddddb073d3c9f888e3cb52b5aae0c6c7706b4fbc905fac828260405162000348929190620005d1565b60405180910390a15050565b600082825260208201905092915050565b7f5061796d656e7453706c69747465723a206163636f756e74206973207468652060008201527f7a65726f20616464726573730000000000000000000000000000000000000000602082015250565b6000620003c3602c8362000354565b9150620003d08262000365565b604082019050919050565b60006020820190508181036000830152620003f681620003b4565b9050919050565b7f5061796d656e7453706c69747465723a20736861726573206172652030000000600082015250565b600062000435601d8362000354565b91506200044282620003fd565b602082019050919050565b60006020820190508181036000830152620004688162000426565b9050919050565b7f5061796d656e7453706c69747465723a206163636f756e7420616c726561647960008201527f2068617320736861726573000000000000000000000000000000000000000000602082015250565b6000620004cd602b8362000354565b9150620004da826200046f565b604082019050919050565b600060208201905081810360008301526200050081620004be565b9050919050565b6000819050919050565b7f4e487b7100000000000000000000000000000000000000000000000000000000600052601160045260246000fd5b60006200054d8262000507565b91506200055a8362000507565b925082820190508082111562000575576200057462000511565b5b92915050565b600073ffffffffffffffffffffffffffffffffffffffff82169050919050565b6000620005a8826200057b565b9050919050565b620005ba816200059b565b82525050565b620005cb8162000507565b82525050565b6000604082019050620005e86000830185620005af565b620005f76020830184620005c0565b9392505050565b61183f806200060e6000396000f3fe6080604052600436106100a05760003560e01c80639852595c116100645780639852595c146101e3578063a3f8eace14610220578063c45ac0501461025d578063ce7c2ac21461029a578063d79779b2146102d7578063e33b7de314610314576100e7565b806319165587146100ec5780633a98ef3914610115578063406072a91461014057806348b750441461017d5780638b83209b146101a6576100e7565b366100e7577f6ef95f06320e7a25a04a175ca677b7052bdd97131872c2192525a629f51be7706100ce61033f565b346040516100dd929190610e49565b60405180910390a1005b600080fd5b3480156100f857600080fd5b50610113600480360381019061010e9190610eb5565b610347565b005b34801561012157600080fd5b5061012a6104cf565b6040516101379190610ee2565b60405180910390f35b34801561014c57600080fd5b5061016760048036038101906101629190610f67565b6104d8565b6040516101749190610ee2565b60405180910390f35b34801561018957600080fd5b506101a4600480360381019061019f9190610f67565b61055f565b005b3480156101b257600080fd5b506101cd60048036038101906101c89190610fd3565b61077b565b6040516101da9190611000565b60405180910390f35b3480156101ef57600080fd5b5061020a6004803603810190610205919061101b565b6107c3565b6040516102179190610ee2565b60405180910390f35b34801561022c57600080fd5b506102476004803603810190610242919061101b565b61080c565b6040516102549190610ee2565b60405180910390f35b34801561026957600080fd5b50610284600480360381019061027f9190610f67565b61083f565b6040516102919190610ee2565b60405180910390f35b3480156102a657600080fd5b506102c160048036038101906102bc919061101b565b6108ee565b6040516102ce9190610ee2565b60405180910390f35b3480156102e357600080fd5b506102fe60048036038101906102f99190611048565b610937565b60405161030b9190610ee2565b60405180910390f35b34801561032057600080fd5b50610329610980565b6040516103369190610ee2565b60405180910390f35b600033905090565b6000600260008373ffffffffffffffffffffffffffffffffffffffff1673ffffffffffffffffffffffffffffffffffffffff16815260200190815260200160002054116103c9576040517f08c379a00000000000000000000000000000000000000000000000000000000081526004016103c0906110f8565b60405180910390fd5b60006103d48261080c565b905060008103610419576040517f08c379a00000000000000000000000000000000000000000000000000000000081526004016104109061118a565b60405180910390fd5b80600360008473ffffffffffffffffffffffffffffffffffffffff1673ffffffffffffffffffffffffffffffffffffffff168152602001908152602001600020600082825461046891906111d9565b92505081905550806001600082825461048191906111d9565b92505081905550610492828261098a565b7fdf20fd1e76bc69d672e4814fafb2c449bba3a5369d8359adf9e05e6fde87b05682826040516104c392919061126c565b60405180910390a15050565b60008054905090565b6000600660008473ffffffffffffffffffffffffffffffffffffffff1673ffffffffffffffffffffffffffffffffffffffff16815260200190815260200160002060008373ffffffffffffffffffffffffffffffffffffffff1673ffffffffffffffffffffffffffffffffffffffff16815260200190815260200160002054905092915050565b6000600260008373ffffffffffffffffffffffffffffffffffffffff1673ffffffffffffffffffffffffffffffffffffffff16815260200190815260200160002054116105e1576040517f08c379a00000000000000000000000000000000000000000000000000000000081526004016105d8906110f8565b60405180910390fd5b60006105ed838361083f565b905060008103610632576040517f08c379a00000000000000000000000000000000000000000000000000000000081526004016106299061118a565b60405180910390fd5b80600660008573ffffffffffffffffffffffffffffffffffffffff1673ffffffffffffffffffffffffffffffffffffffff16815260200190815260200160002060008473ffffffffffffffffffffffffffffffffffffffff1673ffffffffffffffffffffffffffffffffffffffff16815260200190815260200160002060008282546106be91906111d9565b9250508190555080600560008573ffffffffffffffffffffffffffffffffffffffff1673ffffffffffffffffffffffffffffffffffffffff168152602001908152602001600020600082825461071491906111d9565b92505081905550610726838383610a7e565b8273ffffffffffffffffffffffffffffffffffffffff167f3be5b7a71e84ed12875d241991c70855ac5817d847039e17a9d895c1ceb0f18a838360405161076e929190610e49565b60405180910390a2505050565b60006004828154811061079157610790611295565b5b9060005260206000200160009054906101000a900473ffffffffffffffffffffffffffffffffffffffff169050919050565b6000600360008373ffffffffffffffffffffffffffffffffffffffff1673ffffffffffffffffffffffffffffffffffffffff168152602001908152602001600020549050919050565b600080610817610980565b4761082291906111d9565b90506108378382610832866107c3565b610b04565b915050919050565b60008061084b84610937565b8473ffffffffffffffffffffffffffffffffffffffff166370a08231306040518263ffffffff1660e01b81526004016108849190611000565b602060405180830381865afa1580156108a1573d6000803e3d6000fd5b505050506040513d601f19601f820116820180604052508101906108c591906112d9565b6108cf91906111d9565b90506108e583826108e087876104d8565b610b04565b91505092915050565b6000600260008373ffffffffffffffffffffffffffffffffffffffff1673ffffffffffffffffffffffffffffffffffffffff168152602001908152602001600020549050919050565b6000600560008373ffffffffffffffffffffffffffffffffffffffff1673ffffffffffffffffffffffffffffffffffffffff168152602001908152602001600020549050919050565b6000600154905090565b804710156109cd576040517f08c379a00000000000000000000000000000000000000000000000000000000081526004016109c490611352565b60405180910390fd5b60008273ffffffffffffffffffffffffffffffffffffffff16826040516109f3906113a3565b60006040518083038185875af1925050503d8060008114610a30576040519150601f19603f3d011682016040523d82523d6000602084013e610a35565b606091505b5050905080610a79576040517f08c379a0000000000000000000000000000000000000000000000000000000008152600401610a709061142a565b60405180910390fd5b505050565b610aff8363a9059cbb60e01b8484604051602401610a9d929190610e49565b604051602081830303815290604052907bffffffffffffffffffffffffffffffffffffffffffffffffffffffff19166020820180517bffffffffffffffffffffffffffffffffffffffffffffffffffffffff8381831617835250505050610b72565b505050565b600081600054600260008773ffffffffffffffffffffffffffffffffffffffff1673ffffffffffffffffffffffffffffffffffffffff1681526020019081526020016000205485610b55919061144a565b610b5f91906114bb565b610b6991906114ec565b90509392505050565b6000610bd4826040518060400160405280602081526020017f5361666545524332303a206c6f772d6c6576656c2063616c6c206661696c65648152508573ffffffffffffffffffffffffffffffffffffffff16610c399092919063ffffffff16565b9050600081511115610c345780806020019051810190610bf49190611558565b610c33576040517f08c379a0000000000000000000000000000000000000000000000000000000008152600401610c2a906115f7565b60405180910390fd5b5b505050565b6060610c488484600085610c51565b90509392505050565b606082471015610c96576040517f08c379a0000000000000000000000000000000000000000000000000000000008152600401610c8d90611689565b60405180910390fd5b610c9f85610d65565b610cde576040517f08c379a0000000000000000000000000000000000000000000000000000000008152600401610cd5906116f5565b60405180910390fd5b6000808673ffffffffffffffffffffffffffffffffffffffff168587604051610d07919061177b565b60006040518083038185875af1925050503d8060008114610d44576040519150601f19603f3d011682016040523d82523d6000602084013e610d49565b606091505b5091509150610d59828286610d88565b92505050949350505050565b6000808273ffffffffffffffffffffffffffffffffffffffff163b119050919050565b60608315610d9857829050610de8565b600083511115610dab5782518084602001fd5b816040517f08c379a0000000000000000000000000000000000000000000000000000000008152600401610ddf91906117e7565b60405180910390fd5b9392505050565b600073ffffffffffffffffffffffffffffffffffffffff82169050919050565b6000610e1a82610def565b9050919050565b610e2a81610e0f565b82525050565b6000819050919050565b610e4381610e30565b82525050565b6000604082019050610e5e6000830185610e21565b610e6b6020830184610e3a565b9392505050565b600080fd5b6000610e8282610def565b9050919050565b610e9281610e77565b8114610e9d57600080fd5b50565b600081359050610eaf81610e89565b92915050565b600060208284031215610ecb57610eca610e72565b5b6000610ed984828501610ea0565b91505092915050565b6000602082019050610ef76000830184610e3a565b92915050565b6000610f0882610e0f565b9050919050565b610f1881610efd565b8114610f2357600080fd5b50565b600081359050610f3581610f0f565b92915050565b610f4481610e0f565b8114610f4f57600080fd5b50565b600081359050610f6181610f3b565b92915050565b60008060408385031215610f7e57610f7d610e72565b5b6000610f8c85828601610f26565b9250506020610f9d85828601610f52565b9150509250929050565b610fb081610e30565b8114610fbb57600080fd5b50565b600081359050610fcd81610fa7565b92915050565b600060208284031215610fe957610fe8610e72565b5b6000610ff784828501610fbe565b91505092915050565b60006020820190506110156000830184610e21565b92915050565b60006020828403121561103157611030610e72565b5b600061103f84828501610f52565b91505092915050565b60006020828403121561105e5761105d610e72565b5b600061106c84828501610f26565b91505092915050565b600082825260208201905092915050565b7f5061796d656e7453706c69747465723a206163636f756e7420686173206e6f2060008201527f7368617265730000000000000000000000000000000000000000000000000000602082015250565b60006110e2602683611075565b91506110ed82611086565b604082019050919050565b60006020820190508181036000830152611111816110d5565b9050919050565b7f5061796d656e7453706c69747465723a206163636f756e74206973206e6f742060008201527f647565207061796d656e74000000000000000000000000000000000000000000602082015250565b6000611174602b83611075565b915061117f82611118565b604082019050919050565b600060208201905081810360008301526111a381611167565b9050919050565b7f4e487b7100000000000000000000000000000000000000000000000000000000600052601160045260246000fd5b60006111e482610e30565b91506111ef83610e30565b9250828201905080821115611207576112066111aa565b5b92915050565b6000819050919050565b600061123261122d61122884610def565b61120d565b610def565b9050919050565b600061124482611217565b9050919050565b600061125682611239565b9050919050565b6112668161124b565b82525050565b6000604082019050611281600083018561125d565b61128e6020830184610e3a565b9392505050565b7f4e487b7100000000000000000000000000000000000000000000000000000000600052603260045260246000fd5b6000815190506112d381610fa7565b92915050565b6000602082840312156112ef576112ee610e72565b5b60006112fd848285016112c4565b91505092915050565b7f416464726573733a20696e73756666696369656e742062616c616e6365000000600082015250565b600061133c601d83611075565b915061134782611306565b602082019050919050565b6000602082019050818103600083015261136b8161132f565b9050919050565b600081905092915050565b50565b600061138d600083611372565b91506113988261137d565b600082019050919050565b60006113ae82611380565b9150819050919050565b7f416464726573733a20756e61626c6520746f2073656e642076616c75652c207260008201527f6563697069656e74206d61792068617665207265766572746564000000000000602082015250565b6000611414603a83611075565b915061141f826113b8565b604082019050919050565b6000602082019050818103600083015261144381611407565b9050919050565b600061145582610e30565b915061146083610e30565b925082820261146e81610e30565b91508282048414831517611485576114846111aa565b5b5092915050565b7f4e487b7100000000000000000000000000000000000000000000000000000000600052601260045260246000fd5b60006114c682610e30565b91506114d183610e30565b9250826114e1576114e061148c565b5b828204905092915050565b60006114f782610e30565b915061150283610e30565b925082820390508181111561151a576115196111aa565b5b92915050565b60008115159050919050565b61153581611520565b811461154057600080fd5b50565b6000815190506115528161152c565b92915050565b60006020828403121561156e5761156d610e72565b5b600061157c84828501611543565b91505092915050565b7f5361666545524332303a204552433230206f7065726174696f6e20646964206e60008201527f6f74207375636365656400000000000000000000000000000000000000000000602082015250565b60006115e1602a83611075565b91506115ec82611585565b604082019050919050565b60006020820190508181036000830152611610816115d4565b9050919050565b7f416464726573733a20696e73756666696369656e742062616c616e636520666f60008201527f722063616c6c0000000000000000000000000000000000000000000000000000602082015250565b6000611673602683611075565b915061167e82611617565b604082019050919050565b600060208201905081810360008301526116a281611666565b9050919050565b7f416464726573733a2063616c6c20746f206e6f6e2d636f6e7472616374000000600082015250565b60006116df601d83611075565b91506116ea826116a9565b602082019050919050565b6000602082019050818103600083015261170e816116d2565b9050919050565b600081519050919050565b60005b8381101561173e578082015181840152602081019050611723565b60008484015250505050565b600061175582611715565b61175f8185611372565b935061176f818560208601611720565b80840191505092915050565b6000611787828461174a565b915081905092915050565b600081519050919050565b6000601f19601f8301169050919050565b60006117b982611792565b6117c38185611075565b93506117d3818560208601611720565b6117dc8161179d565b840191505092915050565b6000602082019050818103600083015261180181846117ae565b90509291505056fea26469706673582212200b487c6633fa8f8d35b846fad667192faeac069fc94d46aff516c56cfb35b70f64736f6c63430008110033",
  "linkReferences": {},
  "deployedLinkReferences": {}
}